:1000000000308A0004280000FF238316900000308F
:100010008A0099282A308400000803191D2801301D
:10002000A100A001A00B1228A10B11284A30A000AA
:10003000A00B18281B28800B0F280800EE30831611
:100040008500831205100830A10026280000A117A2
:100050003728A113B10C03180514031C0510211730
:1000600037282113A10B2A283528000005141C303D
:100070008400840B39283C28A11B2928211B312806
:1000800008000408B0002A0EF038AC00AC07E23ECD
:10009000AD00323EAF002A080F39AD07AD07AF07FC
:1000A000E93EAE00AE07AE07290E0F39AE07AF0727
:1000B000AE0DAF0DAF09AF0D29080F39AF07AC0D6D
:1000C0000730AB000A30AF07AE03031C6328AE074E
:1000D000AD03031C6728AD07AC03031C6B28AC07FA
:1000E000AB03031C6F282B3084000730300530131E
:1000F00084072F300402031930170008A000031DE5
:100100008928301B8928301A9528B0198928203071
:100110008C28B01530123030A007AA010408A900BD
:100120002008B1001E2029088400840A301F792885
:10013000080003081F398300EE3083168500831200
:100140000514A501A401A701A60128101F138316F9
:100150001F109F101F119F110730831299008316E3
:10016000811383121F1383161F109F101F159F11D9
:100170001F169F161F1383129F171F140830A1000C
:100180001F08F33921049F000512EE308316850005
:1001900001308312AA000A209F149F18CD288316CD
:1001A0001E088312A4001E08A500EE3083168500E9
:1001B0008312A601851AA60AA7011030840025081B
:1001C000AA002408A90041202030B1001E202030C0
:1001D000B1001E20103084002708AA002608A900BC
:1001E00041200D30B1001E200A30B1001E2025082C
:1001F000013C0318FD282814FE282810281C152966
:10020000260B1529A708031D1529260827040319FD
:1002100014290516EE308316850085008312A60189
:10022000851AA60AA70105291A290512EE30831698
:10023000850083120230A900FA30AA000A20A90B17
:060240001C29CC2863001C
:02400E00443F2D
:00000001FF
;PIC12F675
;CRC=2BF7  CREATED="09-jul.-17 18:52"
